{"abi":[{"type":"constructor","inputs":[],"stateMutability":"nonpayable"},{"type":"fallback","stateMutability":"payable"},{"type":"receive","stateMutability":"payable"},{"type":"function","name":"OTAs","inputs":[{"name":"","type":"address","internalType":"address"}],"outputs":[{"name":"","type":"bool","internalType":"bool"}],"stateMutability":"view"},{"type":"function","name":"bookBooking","inputs":[{"name":"roomId","type":"uint256","internalType":"uint256"}],"outputs":[{"name":"","type":"bool","internalType":"bool"}],"stateMutability":"payable"},{"type":"function","name":"bookedRooms","inputs":[{"name":"","type":"address","internalType":"address"},{"name":"","type":"uint256","internalType":"uint256"}],"outputs":[{"name":"","type":"bool","internalType":"bool"}],"stateMutability":"view"},{"type":"function","name":"bookerOfRooms","inputs":[{"name":"roomId","type":"uint256","internalType":"uint256"}],"outputs":[{"name":"booker","type":"address","internalType":"address"}],"stateMutability":"view"},{"type":"function","name":"bookers","inputs":[{"name":"","type":"address","internalType":"address"}],"outputs":[{"name":"","type":"bool","internalType":"bool"}],"stateMutability":"view"},{"type":"function","name":"cancelBooking","inputs":[{"name":"roomId","type":"uint256","internalType":"uint256"}],"outputs":[{"name":"","type":"bool","internalType":"bool"}],"stateMutability":"nonpayable"},{"type":"function","name":"checkpoint","inputs":[{"name":"methodName","type":"string","internalType":"string"}],"outputs":[{"name":"","type":"bool","internalType":"bool"}],"stateMutability":"nonpayable"},{"type":"function","name":"checkpointCounts","inputs":[{"name":"caller","type":"address","internalType":"address"}],"outputs":[{"name":"count","type":"uint256","internalType":"uint256"}],"stateMutability":"view"},{"type":"function","name":"checkpoints","inputs":[{"name":"","type":"address","internalType":"address"},{"name":"","type":"uint256","internalType":"uint256"}],"outputs":[{"name":"","type":"string","internalType":"string"}],"stateMutability":"view"},{"type":"function","name":"escrowBookingPayment","inputs":[{"name":"proof","type":"bytes","internalType":"bytes"},{"name":"publicInputs","type":"bytes32[]","internalType":"bytes32[]"},{"name":"roomId","type":"uint256","internalType":"uint256"}],"outputs":[{"name":"","type":"bool","internalType":"bool"}],"stateMutability":"nonpayable"},{"type":"function","name":"isBooked","inputs":[{"name":"booker","type":"address","internalType":"address"},{"name":"roomId","type":"uint256","internalType":"uint256"}],"outputs":[{"name":"","type":"bool","internalType":"bool"}],"stateMutability":"view"},{"type":"function","name":"isBooker","inputs":[{"name":"booker","type":"address","internalType":"address"}],"outputs":[{"name":"","type":"bool","internalType":"bool"}],"stateMutability":"view"},{"type":"function","name":"listAvailableRooms","inputs":[{"name":"roomId","type":"uint256","internalType":"uint256"},{"name":"roomPrice","type":"uint256","internalType":"uint256"}],"outputs":[{"name":"","type":"bool","internalType":"bool"}],"stateMutability":"nonpayable"},{"type":"function","name":"listedRoomes","inputs":[{"name":"roomId","type":"uint256","internalType":"uint256"}],"outputs":[{"name":"isListed","type":"bool","internalType":"bool"}],"stateMutability":"view"},{"type":"function","name":"lockedAmounts","inputs":[{"name":"","type":"address","internalType":"address"}],"outputs":[{"name":"","type":"uint256","internalType":"uint256"}],"stateMutability":"view"},{"type":"function","name":"nullifiers","inputs":[{"name":"hash","type":"bytes32","internalType":"bytes32"}],"outputs":[{"name":"isNullified","type":"bool","internalType":"bool"}],"stateMutability":"view"},{"type":"function","name":"propertyOwners","inputs":[{"name":"","type":"address","internalType":"address"}],"outputs":[{"name":"","type":"bool","internalType":"bool"}],"stateMutability":"view"},{"type":"function","name":"reclaimProtocolVerifier","inputs":[],"outputs":[{"name":"","type":"address","internalType":"contract ReclaimProtocolVerifier"}],"stateMutability":"view"},{"type":"function","name":"registerAsBooker","inputs":[],"outputs":[{"name":"","type":"bool","internalType":"bool"}],"stateMutability":"nonpayable"},{"type":"function","name":"registerAsOTA","inputs":[],"outputs":[{"name":"","type":"bool","internalType":"bool"}],"stateMutability":"nonpayable"},{"type":"function","name":"registerAsPropertyOwner","inputs":[],"outputs":[{"name":"","type":"bool","internalType":"bool"}],"stateMutability":"nonpayable"},{"type":"function","name":"roomPrices","inputs":[{"name":"","type":"uint256","internalType":"uint256"}],"outputs":[{"name":"","type":"uint256","internalType":"uint256"}],"stateMutability":"view"},{"type":"function","name":"testFunctionForCheckPoint","inputs":[],"outputs":[{"name":"","type":"bool","internalType":"bool"}],"stateMutability":"nonpayable"},{"type":"function","name":"unregisterAsBooker","inputs":[],"outputs":[{"name":"","type":"bool","internalType":"bool"}],"stateMutability":"nonpayable"},{"type":"function","name":"unregisterAsOTA","inputs":[],"outputs":[{"name":"","type":"bool","internalType":"bool"}],"stateMutability":"nonpayable"},{"type":"function","name":"unregisterAsPropertyOwner","inputs":[],"outputs":[{"name":"","type":"bool","internalType":"bool"}],"stateMutability":"nonpayable"},{"type":"function","name":"version","inputs":[],"outputs":[{"name":"","type":"string","internalType":"string"}],"stateMutability":"view"}],"bytecode":{"object":"0x608060405234801561001057600080fd5b50604080518082019091526006815265302e322e333760d01b6020820152600c9061003b90826100e0565b5061019e565b634e487b7160e01b600052604160045260246000fd5b600181811c9082168061006b57607f821691505b60208210810361008b57634e487b7160e01b600052602260045260246000fd5b50919050565b601f8211156100db57806000526020600020601f840160051c810160208510156100b85750805b601f840160051c820191505b818110156100d857600081556001016100c4565b50505b505050565b81516001600160401b038111156100f9576100f9610041565b61010d816101078454610057565b84610091565b6020601f82116001811461014157600083156101295750848201515b600019600385901b1c1916600184901b1784556100d8565b600084815260208120601f198516915b828110156101715787850151825560209485019460019092019101610151565b508482101561018f5786840151600019600387901b60f8161c191681555b50505050600190811b01905550565b611764806101ad6000396000f3fe6080604052600436106101a05760003560e01c80638099b3f5116100ec578063c158bf3b1161008a578063e2cc103611610064578063e2cc103614610667578063ee626d6a14610687578063f15ea472146106bd578063fe67f902146106ed5761025a565b8063c158bf3b146105f5578063c91489a71461060a578063d75e26a4146106375761025a565b8063ad11c23f116100c6578063ad11c23f14610565578063b9ea94b3146105a0578063bd5a6d2a146105b3578063c0a32996146105c85761025a565b80638099b3f514610500578063956d096114610515578063a8c7a08a1461052a5761025a565b80633e1d38451161015957806363036d541161013357806363036d541461046b5780636697a925146104805780636f8a8921146104a0578063771c6f07146104d05761025a565b80633e1d38451461042c578063484e085f1461044157806354fd4d50146104565761025a565b8063062db1e3146103095780630cdfebfa146103575780630dca825e1461038457806317d1bd2b146103a45780632997e86b146103dc57806334779ec31461040c5761025a565b3661025a57600034116101f15760405162461bcd60e51b815260206004820152601460248201527326bab9ba1039b2b7321039b7b6b29022ba3432b960611b60448201526064015b60405180910390fd5b33600090815260086020526040812080543492906102109084906112f3565b909155505060408051808201825260078152667265636569766560c81b602080830191909152336000908152600a8252838120428252909152919091209061025890826113a5565b005b600034116102a15760405162461bcd60e51b815260206004820152601460248201527326bab9ba1039b2b7321039b7b6b29022ba3432b960611b60448201526064016101e8565b33600090815260086020526040812080543492906102c09084906112f3565b9091555050604080518082018252600881526766616c6c6261636b60c01b602080830191909152336000908152600a8252838120428252909152919091209061025890826113a5565b34801561031557600080fd5b50610342610324366004611480565b6001600160a01b031660009081526001602052604090205460ff1690565b60405190151581526020015b60405180910390f35b34801561036357600080fd5b506103776103723660046114a2565b61070d565b60405161034e91906114cc565b34801561039057600080fd5b5061034261039f36600461151a565b6107b2565b3480156103b057600080fd5b506000546103c4906001600160a01b031681565b6040516001600160a01b03909116815260200161034e565b3480156103e857600080fd5b506103426103f736600461151a565b60096020526000908152604090205460ff1681565b34801561041857600080fd5b5061034261042736600461157f565b610945565b34801561043857600080fd5b50610342610a37565b34801561044d57600080fd5b50610342610af3565b34801561046257600080fd5b50610377610bb7565b34801561047757600080fd5b50610342610bc4565b34801561048c57600080fd5b5061034261049b366004611627565b610c83565b3480156104ac57600080fd5b506103426104bb366004611480565b60036020526000908152604090205460ff1681565b3480156104dc57600080fd5b506103426104eb366004611480565b60026020526000908152604090205460ff1681565b34801561050c57600080fd5b50610342610d16565b34801561052157600080fd5b50610342610d76565b34801561053657600080fd5b50610557610545366004611480565b60086020526000908152604090205481565b60405190815260200161034e565b34801561057157600080fd5b506103426105803660046114a2565b600460209081526000928352604080842090915290825290205460ff1681565b6103426105ae36600461151a565b610e39565b3480156105bf57600080fd5b50610342611016565b3480156105d457600080fd5b506105576105e3366004611480565b600b6020526000908152604090205481565b34801561060157600080fd5b506103426110f0565b34801561061657600080fd5b5061055761062536600461151a565b60076020526000908152604090205481565b34801561064357600080fd5b5061034261065236600461151a565b60066020526000908152604090205460ff1681565b34801561067357600080fd5b506103426106823660046114a2565b6111c5565b34801561069357600080fd5b506103c46106a236600461151a565b6005602052600090815260409020546001600160a01b031681565b3480156106c957600080fd5b506103426106d8366004611480565b60016020526000908152604090205460ff1681565b3480156106f957600080fd5b506103426107083660046116e0565b6111f3565b600a602090815260009283526040808420909152908252902080546107319061131c565b80601f016020809104026020016040519081016040528092919081815260200182805461075d9061131c565b80156107aa5780601f1061077f576101008083540402835291602001916107aa565b820191906000526020600020905b81548152906001019060200180831161078d57829003601f168201915b505050505081565b604080518082018252600d81526c63616e63656c426f6f6b696e6760981b602080830191909152336000908152600a8252838120428252909152918220906107fa90826113a5565b5033600090815260046020908152604080832085845290915290205460ff1661085a5760405162461bcd60e51b8152602060048201526012602482015271149bdbdb481a5cc81b9bdd08189bdbdad95960721b60448201526064016101e8565b3360008181526004602090815260408083208684528252808320805460ff191690556005825280832080546001600160a01b0319169055600790915280822054905190929083908381818185875af1925050503d80600081146108d9576040519150601f19603f3d011682016040523d82523d6000602084013e6108de565b606091505b5050809150508061093b5760405162461bcd60e51b815260206004820152602160248201527f4661696c656420746f20756e6c6f636b206120626f6f6b696e6720616d6f756e6044820152601d60fa1b60648201526084016101e8565b5060019392505050565b6000600160008381526005602090815260408083205460078352818420546001600160a01b039091168085526008909352908320805460019483929161098c908490611702565b909155505060405133908290600081818185875af1925050503d80600081146109d1576040519150601f19603f3d011682016040523d82523d6000602084013e6109d6565b606091505b50506040805180820182526014815273195cd8dc9bddd09bdbdada5b99d4185e5b595b9d60621b602080830191909152336000908152600a8252838120428252909152919091209150610a2990826113a5565b505050505095945050505050565b604080518082018252600f81526e756e726567697374657241734f544160881b602080830191909152336000908152600a825283812042825290915291822090610a8190826113a5565b503360009081526003602052604090205460ff16610ad65760405162461bcd60e51b815260206004820152601260248201527113d51048191bd95cc81b9bdd08195e1a5cdd60721b60448201526064016101e8565b50336000908152600360205260409020805460ff19169055600190565b604080518082018252601081526f3932b3b4b9ba32b920b9a137b7b5b2b960811b602080830191909152336000908152600a825283812042825290915291822090610b3e90826113a5565b503360009081526001602052604090205460ff1615610b975760405162461bcd60e51b8152602060048201526015602482015274426f6f6b657220616c72656164792065786973747360581b60448201526064016101e8565b50336000908152600160208190526040909120805460ff19168217905590565b600c80546107319061131c565b604080518082018252600d81526c726567697374657241734f544160981b602080830191909152336000908152600a825283812042825290915291822090610c0c90826113a5565b503360009081526003602052604090205460ff1615610c625760405162461bcd60e51b81526020600482015260126024820152714f544120616c72656164792065786973747360701b60448201526064016101e8565b50336000908152600360205260409020805460ff1916600190811790915590565b336000908152600a602090815260408083204284529091528120610ca783826113a5565b50604080518082018252600a8082526918da1958dadc1bda5b9d60b21b60208084019190915233600090815291815283822042835290529190912090610ced90826113a5565b50336000908152600b60205260408120805491610d0983611715565b9091555060019392505050565b604080518082018252601981527f7465737446756e6374696f6e466f72436865636b506f696e7400000000000000602080830191909152336000908152600a825283812042825290915291822090610d6e90826113a5565b506001905090565b60408051808201825260128152713ab73932b3b4b9ba32b920b9a137b7b5b2b960711b602080830191909152336000908152600a825283812042825290915291822090610dc390826113a5565b503360009081526001602052604090205460ff16610e1b5760405162461bcd60e51b8152602060048201526015602482015274109bdbdad95c88191bd95cc81b9bdd08195e1a5cdd605a1b60448201526064016101e8565b50336000908152600160208190526040909120805460ff1916905590565b33600090815260016020819052604082205460ff1615151480610e7057503360009081526003602052604090205460ff1615156001145b610ed15760405162461bcd60e51b815260206004820152602c60248201527f596f75206d7573742062652072656769737465726564206173206120626f6f6b60448201526b6572206f7220616e204f544160a01b60648201526084016101e8565b604080518082018252600b81526a626f6f6b426f6f6b696e6760a81b602080830191909152336000908152600a82528381204282529091529190912090610f1890826113a5565b503360008181526004602090815260408083208684528252808320805460ff191660011790556005825280832080546001600160a01b031916851790556007825280832054938352600890915281208054839290610f779084906112f3565b9091555050604051600090309034908381818185875af1925050503d8060008114610fbe576040519150601f19603f3d011682016040523d82523d6000602084013e610fc3565b606091505b5050809150508061093b5760405162461bcd60e51b815260206004820152601f60248201527f4661696c656420746f206c6f636b206120626f6f6b696e6720616d6f756e740060448201526064016101e8565b604080518082018252601781527f7265676973746572417350726f70657274794f776e6572000000000000000000602080830191909152336000908152600a82528381204282529091529182209061106e90826113a5565b503360009081526002602052604090205460ff16156110cf5760405162461bcd60e51b815260206004820152601d60248201527f50726f7065727479204f776e657220616c72656164792065786973747300000060448201526064016101e8565b50336000908152600260205260409020805460ff1916600190811790915590565b604080518082018252601981527f756e7265676973746572417350726f70657274794f776e657200000000000000602080830191909152336000908152600a82528381204282529091529182209061114890826113a5565b503360009081526002602052604090205460ff166111a85760405162461bcd60e51b815260206004820152601d60248201527f50726f7065727479204f776e657220646f6573206e6f7420657869737400000060448201526064016101e8565b50336000908152600260205260409020805460ff19169055600190565b6001600160a01b038216600090815260046020908152604080832084845290915290205460ff165b92915050565b60408051808201825260128152716c697374417661696c61626c65526f6f6d7360701b602080830191909152336000908152600a82528381204282529091529182209061124090826113a5565b503360009081526002602052604090205460ff1615156001146112b15760405162461bcd60e51b815260206004820152602360248201527f4f6e6c792070726f7065727479206f776e6572732063616e206c69737420726f6044820152626f6d7360e81b60648201526084016101e8565b506000918252600660209081526040808420805460ff1916600190811790915560079092529092205590565b634e487b7160e01b600052601160045260246000fd5b808201808211156111ed576111ed6112dd565b634e487b7160e01b600052604160045260246000fd5b600181811c9082168061133057607f821691505b60208210810361135057634e487b7160e01b600052602260045260246000fd5b50919050565b601f8211156113a057806000526020600020601f840160051c8101602085101561137d5750805b601f840160051c820191505b8181101561139d5760008155600101611389565b50505b505050565b815167ffffffffffffffff8111156113bf576113bf611306565b6113d3816113cd845461131c565b84611356565b6020601f82116001811461140757600083156113ef5750848201515b600019600385901b1c1916600184901b17845561139d565b600084815260208120601f198516915b828110156114375787850151825560209485019460019092019101611417565b50848210156114555786840151600019600387901b60f8161c191681555b50505050600190811b01905550565b80356001600160a01b038116811461147b57600080fd5b919050565b60006020828403121561149257600080fd5b61149b82611464565b9392505050565b600080604083850312156114b557600080fd5b6114be83611464565b946020939093013593505050565b602081526000825180602084015260005b818110156114fa57602081860181015160408684010152016114dd565b506000604082850101526040601f19601f83011684010191505092915050565b60006020828403121561152c57600080fd5b5035919050565b60008083601f84011261154557600080fd5b50813567ffffffffffffffff81111561155d57600080fd5b6020830191508360208260051b850101111561157857600080fd5b9250929050565b60008060008060006060868803121561159757600080fd5b853567ffffffffffffffff8111156115ae57600080fd5b8601601f810188136115bf57600080fd5b803567ffffffffffffffff8111156115d657600080fd5b8860208284010111156115e857600080fd5b60209182019650945086013567ffffffffffffffff81111561160957600080fd5b61161588828901611533565b96999598509660400135949350505050565b60006020828403121561163957600080fd5b813567ffffffffffffffff81111561165057600080fd5b8201601f8101841361166157600080fd5b803567ffffffffffffffff81111561167b5761167b611306565b604051601f8201601f19908116603f0116810167ffffffffffffffff811182821017156116aa576116aa611306565b6040528181528282016020018610156116c257600080fd5b81602084016020830137600091810160200191909152949350505050565b600080604083850312156116f357600080fd5b50508035926020909101359150565b818103818111156111ed576111ed6112dd565b600060018201611727576117276112dd565b506001019056fea264697066735822122091a5d7f4c79e3ad8aa5dd9a584fbdb1c3f81a1feeab99d85df059440c194b8fb64736f6c634300081c0033","linkReferences":{}},"methodIdentifiers":{"OTAs(address)":"6f8a8921","bookBooking(uint256)":"b9ea94b3","bookedRooms(address,uint256)":"ad11c23f","bookerOfRooms(uint256)":"ee626d6a","bookers(address)":"f15ea472","cancelBooking(uint256)":"0dca825e","checkpoint(string)":"6697a925","checkpointCounts(address)":"c0a32996","checkpoints(address,uint256)":"0cdfebfa","escrowBookingPayment(bytes,bytes32[],uint256)":"34779ec3","isBooked(address,uint256)":"e2cc1036","isBooker(address)":"062db1e3","listAvailableRooms(uint256,uint256)":"fe67f902","listedRoomes(uint256)":"d75e26a4","lockedAmounts(address)":"a8c7a08a","nullifiers(bytes32)":"2997e86b","propertyOwners(address)":"771c6f07","reclaimProtocolVerifier()":"17d1bd2b","registerAsBooker()":"484e085f","registerAsOTA()":"63036d54","registerAsPropertyOwner()":"bd5a6d2a","roomPrices(uint256)":"c91489a7","testFunctionForCheckPoint()":"8099b3f5","unregisterAsBooker()":"956d0961","unregisterAsOTA()":"3e1d3845","unregisterAsPropertyOwner()":"c158bf3b","version()":"54fd4d50"},"id":1}