{
    "abi": [
        {
            "type": "constructor",
            "inputs": [],
            "stateMutability": "nonpayable"
        },
        {
            "type": "fallback",
            "stateMutability": "payable"
        },
        {
            "type": "receive",
            "stateMutability": "payable"
        },
        {
            "type": "function",
            "name": "OTAs",
            "inputs": [
                {
                    "name": "",
                    "type": "address",
                    "internalType": "address"
                }
            ],
            "outputs": [
                {
                    "name": "",
                    "type": "bool",
                    "internalType": "bool"
                }
            ],
            "stateMutability": "view"
        },
        {
            "type": "function",
            "name": "addToSixtyOne",
            "inputs": [
                {
                    "name": "methodName",
                    "type": "string",
                    "internalType": "string"
                }
            ],
            "outputs": [
                {
                    "name": "",
                    "type": "bool",
                    "internalType": "bool"
                }
            ],
            "stateMutability": "nonpayable"
        },
        {
            "type": "function",
            "name": "bookBooking",
            "inputs": [
                {
                    "name": "roomId",
                    "type": "uint256",
                    "internalType": "uint256"
                }
            ],
            "outputs": [
                {
                    "name": "",
                    "type": "bool",
                    "internalType": "bool"
                }
            ],
            "stateMutability": "payable"
        },
        {
            "type": "function",
            "name": "bookedRooms",
            "inputs": [
                {
                    "name": "",
                    "type": "address",
                    "internalType": "address"
                },
                {
                    "name": "",
                    "type": "uint256",
                    "internalType": "uint256"
                }
            ],
            "outputs": [
                {
                    "name": "",
                    "type": "bool",
                    "internalType": "bool"
                }
            ],
            "stateMutability": "view"
        },
        {
            "type": "function",
            "name": "bookerOfRooms",
            "inputs": [
                {
                    "name": "roomId",
                    "type": "uint256",
                    "internalType": "uint256"
                }
            ],
            "outputs": [
                {
                    "name": "booker",
                    "type": "address",
                    "internalType": "address"
                }
            ],
            "stateMutability": "view"
        },
        {
            "type": "function",
            "name": "bookers",
            "inputs": [
                {
                    "name": "",
                    "type": "address",
                    "internalType": "address"
                }
            ],
            "outputs": [
                {
                    "name": "",
                    "type": "bool",
                    "internalType": "bool"
                }
            ],
            "stateMutability": "view"
        },
        {
            "type": "function",
            "name": "cancelBooking",
            "inputs": [
                {
                    "name": "roomId",
                    "type": "uint256",
                    "internalType": "uint256"
                }
            ],
            "outputs": [
                {
                    "name": "",
                    "type": "bool",
                    "internalType": "bool"
                }
            ],
            "stateMutability": "nonpayable"
        },
        {
            "type": "function",
            "name": "checkpoint",
            "inputs": [
                {
                    "name": "methodName",
                    "type": "string",
                    "internalType": "string"
                }
            ],
            "outputs": [
                {
                    "name": "",
                    "type": "bool",
                    "internalType": "bool"
                }
            ],
            "stateMutability": "nonpayable"
        },
        {
            "type": "function",
            "name": "checkpointCounts",
            "inputs": [
                {
                    "name": "caller",
                    "type": "address",
                    "internalType": "address"
                }
            ],
            "outputs": [
                {
                    "name": "count",
                    "type": "uint256",
                    "internalType": "uint256"
                }
            ],
            "stateMutability": "view"
        },
        {
            "type": "function",
            "name": "checkpoints",
            "inputs": [
                {
                    "name": "",
                    "type": "address",
                    "internalType": "address"
                },
                {
                    "name": "",
                    "type": "uint256",
                    "internalType": "uint256"
                }
            ],
            "outputs": [
                {
                    "name": "",
                    "type": "string",
                    "internalType": "string"
                }
            ],
            "stateMutability": "view"
        },
        {
            "type": "function",
            "name": "escrowBookingPayment",
            "inputs": [
                {
                    "name": "proof",
                    "type": "bytes",
                    "internalType": "bytes"
                },
                {
                    "name": "publicInputs",
                    "type": "bytes32[]",
                    "internalType": "bytes32[]"
                },
                {
                    "name": "roomId",
                    "type": "uint256",
                    "internalType": "uint256"
                }
            ],
            "outputs": [
                {
                    "name": "",
                    "type": "bool",
                    "internalType": "bool"
                }
            ],
            "stateMutability": "nonpayable"
        },
        {
            "type": "function",
            "name": "isBooked",
            "inputs": [
                {
                    "name": "booker",
                    "type": "address",
                    "internalType": "address"
                },
                {
                    "name": "roomId",
                    "type": "uint256",
                    "internalType": "uint256"
                }
            ],
            "outputs": [
                {
                    "name": "",
                    "type": "bool",
                    "internalType": "bool"
                }
            ],
            "stateMutability": "view"
        },
        {
            "type": "function",
            "name": "isBooker",
            "inputs": [
                {
                    "name": "booker",
                    "type": "address",
                    "internalType": "address"
                }
            ],
            "outputs": [
                {
                    "name": "",
                    "type": "bool",
                    "internalType": "bool"
                }
            ],
            "stateMutability": "view"
        },
        {
            "type": "function",
            "name": "listAvailableRooms",
            "inputs": [
                {
                    "name": "roomId",
                    "type": "uint256",
                    "internalType": "uint256"
                },
                {
                    "name": "roomPrice",
                    "type": "uint256",
                    "internalType": "uint256"
                }
            ],
            "outputs": [
                {
                    "name": "",
                    "type": "bool",
                    "internalType": "bool"
                }
            ],
            "stateMutability": "nonpayable"
        },
        {
            "type": "function",
            "name": "listedRoomes",
            "inputs": [
                {
                    "name": "roomId",
                    "type": "uint256",
                    "internalType": "uint256"
                }
            ],
            "outputs": [
                {
                    "name": "isListed",
                    "type": "bool",
                    "internalType": "bool"
                }
            ],
            "stateMutability": "view"
        },
        {
            "type": "function",
            "name": "lockedAmounts",
            "inputs": [
                {
                    "name": "",
                    "type": "address",
                    "internalType": "address"
                }
            ],
            "outputs": [
                {
                    "name": "",
                    "type": "uint256",
                    "internalType": "uint256"
                }
            ],
            "stateMutability": "view"
        },
        {
            "type": "function",
            "name": "nullifiers",
            "inputs": [
                {
                    "name": "hash",
                    "type": "bytes32",
                    "internalType": "bytes32"
                }
            ],
            "outputs": [
                {
                    "name": "isNullified",
                    "type": "bool",
                    "internalType": "bool"
                }
            ],
            "stateMutability": "view"
        },
        {
            "type": "function",
            "name": "propertyOwners",
            "inputs": [
                {
                    "name": "",
                    "type": "address",
                    "internalType": "address"
                }
            ],
            "outputs": [
                {
                    "name": "",
                    "type": "bool",
                    "internalType": "bool"
                }
            ],
            "stateMutability": "view"
        },
        {
            "type": "function",
            "name": "reclaimProtocolVerifier",
            "inputs": [],
            "outputs": [
                {
                    "name": "",
                    "type": "address",
                    "internalType": "contract ReclaimProtocolVerifier"
                }
            ],
            "stateMutability": "view"
        },
        {
            "type": "function",
            "name": "registerAsBooker",
            "inputs": [],
            "outputs": [
                {
                    "name": "",
                    "type": "bool",
                    "internalType": "bool"
                }
            ],
            "stateMutability": "nonpayable"
        },
        {
            "type": "function",
            "name": "registerAsOTA",
            "inputs": [],
            "outputs": [
                {
                    "name": "",
                    "type": "bool",
                    "internalType": "bool"
                }
            ],
            "stateMutability": "nonpayable"
        },
        {
            "type": "function",
            "name": "registerAsPropertyOwner",
            "inputs": [],
            "outputs": [
                {
                    "name": "",
                    "type": "bool",
                    "internalType": "bool"
                }
            ],
            "stateMutability": "nonpayable"
        },
        {
            "type": "function",
            "name": "roomPrices",
            "inputs": [
                {
                    "name": "",
                    "type": "uint256",
                    "internalType": "uint256"
                }
            ],
            "outputs": [
                {
                    "name": "",
                    "type": "uint256",
                    "internalType": "uint256"
                }
            ],
            "stateMutability": "view"
        },
        {
            "type": "function",
            "name": "testFunctionForCheckPoint",
            "inputs": [],
            "outputs": [
                {
                    "name": "",
                    "type": "bool",
                    "internalType": "bool"
                }
            ],
            "stateMutability": "nonpayable"
        },
        {
            "type": "function",
            "name": "unregisterAsBooker",
            "inputs": [],
            "outputs": [
                {
                    "name": "",
                    "type": "bool",
                    "internalType": "bool"
                }
            ],
            "stateMutability": "nonpayable"
        },
        {
            "type": "function",
            "name": "unregisterAsOTA",
            "inputs": [],
            "outputs": [
                {
                    "name": "",
                    "type": "bool",
                    "internalType": "bool"
                }
            ],
            "stateMutability": "nonpayable"
        },
        {
            "type": "function",
            "name": "unregisterAsPropertyOwner",
            "inputs": [],
            "outputs": [
                {
                    "name": "",
                    "type": "bool",
                    "internalType": "bool"
                }
            ],
            "stateMutability": "nonpayable"
        },
        {
            "type": "function",
            "name": "version",
            "inputs": [],
            "outputs": [
                {
                    "name": "",
                    "type": "string",
                    "internalType": "string"
                }
            ],
            "stateMutability": "view"
        }
    ],
    "bytecode": {
        "object": "0x608060405234801561001057600080fd5b50604080518082019091526007815266302e36392e393960c81b6020820152600c9061003c90826100e1565b5061019f565b634e487b7160e01b600052604160045260246000fd5b600181811c9082168061006c57607f821691505b60208210810361008c57634e487b7160e01b600052602260045260246000fd5b50919050565b601f8211156100dc57806000526020600020601f840160051c810160208510156100b95750805b601f840160051c820191505b818110156100d957600081556001016100c5565b50505b505050565b81516001600160401b038111156100fa576100fa610042565b61010e816101088454610058565b84610092565b6020601f821160018114610142576000831561012a5750848201515b600019600385901b1c1916600184901b1784556100d9565b600084815260208120601f198516915b828110156101725787850151825560209485019460019092019101610152565b50848210156101905786840151600019600387901b60f8161c191681555b50505050600190811b01905550565b6117e7806101ae6000396000f3fe6080604052600436106101bb5760003560e01c80638099b3f5116100ec578063c158bf3b1161008a578063e2cc103611610064578063e2cc1036146106a2578063ee626d6a146106c2578063f15ea472146106f8578063fe67f9021461072857610275565b8063c158bf3b14610630578063c91489a714610645578063d75e26a41461067257610275565b8063ad11c23f116100c6578063ad11c23f146105a0578063b9ea94b3146105db578063bd5a6d2a146105ee578063c0a329961461060357610275565b80638099b3f51461053b578063956d096114610550578063a8c7a08a1461056557610275565b8063484e085f1161015957806363036d541161013357806363036d54146104a65780636697a925146104bb5780636f8a8921146104db578063771c6f071461050b57610275565b8063484e085f1461045c5780634f1fd30e1461047157806354fd4d501461049157610275565b806317d1bd2b1161019557806317d1bd2b146103bf5780632997e86b146103f757806334779ec3146104275780633e1d38451461044757610275565b8063062db1e3146103245780630cdfebfa146103725780630dca825e1461039f57610275565b36610275576000341161020c5760405162461bcd60e51b815260206004820152601460248201527326bab9ba1039b2b7321039b7b6b29022ba3432b960611b60448201526064015b60405180910390fd5b336000908152600860205260408120805434929061022b908490611376565b909155505060408051808201825260078152667265636569766560c81b602080830191909152336000908152600a825283812042825290915291909120906102739082611428565b005b600034116102bc5760405162461bcd60e51b815260206004820152601460248201527326bab9ba1039b2b7321039b7b6b29022ba3432b960611b6044820152606401610203565b33600090815260086020526040812080543492906102db908490611376565b9091555050604080518082018252600881526766616c6c6261636b60c01b602080830191909152336000908152600a825283812042825290915291909120906102739082611428565b34801561033057600080fd5b5061035d61033f366004611503565b6001600160a01b031660009081526001602052604090205460ff1690565b60405190151581526020015b60405180910390f35b34801561037e57600080fd5b5061039261038d366004611525565b610748565b604051610369919061154f565b3480156103ab57600080fd5b5061035d6103ba36600461159d565b6107ed565b3480156103cb57600080fd5b506000546103df906001600160a01b031681565b6040516001600160a01b039091168152602001610369565b34801561040357600080fd5b5061035d61041236600461159d565b60096020526000908152604090205460ff1681565b34801561043357600080fd5b5061035d610442366004611602565b610980565b34801561045357600080fd5b5061035d610a72565b34801561046857600080fd5b5061035d610b2e565b34801561047d57600080fd5b5061035d61048c3660046116aa565b610bf2565b34801561049d57600080fd5b50610392610c63565b3480156104b257600080fd5b5061035d610c70565b3480156104c757600080fd5b5061035d6104d63660046116aa565b610d2f565b3480156104e757600080fd5b5061035d6104f6366004611503565b60036020526000908152604090205460ff1681565b34801561051757600080fd5b5061035d610526366004611503565b60026020526000908152604090205460ff1681565b34801561054757600080fd5b5061035d610d99565b34801561055c57600080fd5b5061035d610df9565b34801561057157600080fd5b50610592610580366004611503565b60086020526000908152604090205481565b604051908152602001610369565b3480156105ac57600080fd5b5061035d6105bb366004611525565b600460209081526000928352604080842090915290825290205460ff1681565b61035d6105e936600461159d565b610ebc565b3480156105fa57600080fd5b5061035d611099565b34801561060f57600080fd5b5061059261061e366004611503565b600b6020526000908152604090205481565b34801561063c57600080fd5b5061035d611173565b34801561065157600080fd5b5061059261066036600461159d565b60076020526000908152604090205481565b34801561067e57600080fd5b5061035d61068d36600461159d565b60066020526000908152604090205460ff1681565b3480156106ae57600080fd5b5061035d6106bd366004611525565b611248565b3480156106ce57600080fd5b506103df6106dd36600461159d565b6005602052600090815260409020546001600160a01b031681565b34801561070457600080fd5b5061035d610713366004611503565b60016020526000908152604090205460ff1681565b34801561073457600080fd5b5061035d610743366004611763565b611276565b600a6020908152600092835260408084209091529082529020805461076c9061139f565b80601f01602080910402602001604051908101604052809291908181526020018280546107989061139f565b80156107e55780601f106107ba576101008083540402835291602001916107e5565b820191906000526020600020905b8154815290600101906020018083116107c857829003601f168201915b505050505081565b604080518082018252600d81526c63616e63656c426f6f6b696e6760981b602080830191909152336000908152600a8252838120428252909152918220906108359082611428565b5033600090815260046020908152604080832085845290915290205460ff166108955760405162461bcd60e51b8152602060048201526012602482015271149bdbdb481a5cc81b9bdd08189bdbdad95960721b6044820152606401610203565b3360008181526004602090815260408083208684528252808320805460ff191690556005825280832080546001600160a01b0319169055600790915280822054905190929083908381818185875af1925050503d8060008114610914576040519150601f19603f3d011682016040523d82523d6000602084013e610919565b606091505b505080915050806109765760405162461bcd60e51b815260206004820152602160248201527f4661696c656420746f20756e6c6f636b206120626f6f6b696e6720616d6f756e6044820152601d60fa1b6064820152608401610203565b5060019392505050565b6000600160008381526005602090815260408083205460078352818420546001600160a01b03909116808552600890935290832080546001948392916109c7908490611785565b909155505060405133908290600081818185875af1925050503d8060008114610a0c576040519150601f19603f3d011682016040523d82523d6000602084013e610a11565b606091505b50506040805180820182526014815273195cd8dc9bddd09bdbdada5b99d4185e5b595b9d60621b602080830191909152336000908152600a8252838120428252909152919091209150610a649082611428565b505050505095945050505050565b604080518082018252600f81526e756e726567697374657241734f544160881b602080830191909152336000908152600a825283812042825290915291822090610abc9082611428565b503360009081526003602052604090205460ff16610b115760405162461bcd60e51b815260206004820152601260248201527113d51048191bd95cc81b9bdd08195e1a5cdd60721b6044820152606401610203565b50336000908152600360205260409020805460ff19169055600190565b604080518082018252601081526f3932b3b4b9ba32b920b9a137b7b5b2b960811b602080830191909152336000908152600a825283812042825290915291822090610b799082611428565b503360009081526001602052604090205460ff1615610bd25760405162461bcd60e51b8152602060048201526015602482015274426f6f6b657220616c72656164792065786973747360581b6044820152606401610203565b50336000908152600160208190526040909120805460ff19168217905590565b604080518082018252600d81526c616464546f53697874794f6e6560981b602080830191909152336000908152600a825283812042825290915291822090610c3a9082611428565b50336000908152600b60205260408120805491610c5683611798565b9091555060019392505050565b600c805461076c9061139f565b604080518082018252600d81526c726567697374657241734f544160981b602080830191909152336000908152600a825283812042825290915291822090610cb89082611428565b503360009081526003602052604090205460ff1615610d0e5760405162461bcd60e51b81526020600482015260126024820152714f544120616c72656164792065786973747360701b6044820152606401610203565b50336000908152600360205260409020805460ff1916600190811790915590565b336000908152600a602090815260408083204284529091528120610d538382611428565b50604080518082018252600a8082526918da1958dadc1bda5b9d60b21b60208084019190915233600090815291815283822042835290529190912090610c3a9082611428565b604080518082018252601981527f7465737446756e6374696f6e466f72436865636b506f696e7400000000000000602080830191909152336000908152600a825283812042825290915291822090610df19082611428565b506001905090565b60408051808201825260128152713ab73932b3b4b9ba32b920b9a137b7b5b2b960711b602080830191909152336000908152600a825283812042825290915291822090610e469082611428565b503360009081526001602052604090205460ff16610e9e5760405162461bcd60e51b8152602060048201526015602482015274109bdbdad95c88191bd95cc81b9bdd08195e1a5cdd605a1b6044820152606401610203565b50336000908152600160208190526040909120805460ff1916905590565b33600090815260016020819052604082205460ff1615151480610ef357503360009081526003602052604090205460ff1615156001145b610f545760405162461bcd60e51b815260206004820152602c60248201527f596f75206d7573742062652072656769737465726564206173206120626f6f6b60448201526b6572206f7220616e204f544160a01b6064820152608401610203565b604080518082018252600b81526a626f6f6b426f6f6b696e6760a81b602080830191909152336000908152600a82528381204282529091529190912090610f9b9082611428565b503360008181526004602090815260408083208684528252808320805460ff191660011790556005825280832080546001600160a01b031916851790556007825280832054938352600890915281208054839290610ffa908490611376565b9091555050604051600090309034908381818185875af1925050503d8060008114611041576040519150601f19603f3d011682016040523d82523d6000602084013e611046565b606091505b505080915050806109765760405162461bcd60e51b815260206004820152601f60248201527f4661696c656420746f206c6f636b206120626f6f6b696e6720616d6f756e74006044820152606401610203565b604080518082018252601781527f7265676973746572417350726f70657274794f776e6572000000000000000000602080830191909152336000908152600a8252838120428252909152918220906110f19082611428565b503360009081526002602052604090205460ff16156111525760405162461bcd60e51b815260206004820152601d60248201527f50726f7065727479204f776e657220616c7265616479206578697374730000006044820152606401610203565b50336000908152600260205260409020805460ff1916600190811790915590565b604080518082018252601981527f756e7265676973746572417350726f70657274794f776e657200000000000000602080830191909152336000908152600a8252838120428252909152918220906111cb9082611428565b503360009081526002602052604090205460ff1661122b5760405162461bcd60e51b815260206004820152601d60248201527f50726f7065727479204f776e657220646f6573206e6f742065786973740000006044820152606401610203565b50336000908152600260205260409020805460ff19169055600190565b6001600160a01b038216600090815260046020908152604080832084845290915290205460ff165b92915050565b60408051808201825260128152716c697374417661696c61626c65526f6f6d7360701b602080830191909152336000908152600a8252838120428252909152918220906112c39082611428565b503360009081526002602052604090205460ff1615156001146113345760405162461bcd60e51b815260206004820152602360248201527f4f6e6c792070726f7065727479206f776e6572732063616e206c69737420726f6044820152626f6d7360e81b6064820152608401610203565b506000918252600660209081526040808420805460ff1916600190811790915560079092529092205590565b634e487b7160e01b600052601160045260246000fd5b8082018082111561127057611270611360565b634e487b7160e01b600052604160045260246000fd5b600181811c908216806113b357607f821691505b6020821081036113d357634e487b7160e01b600052602260045260246000fd5b50919050565b601f82111561142357806000526020600020601f840160051c810160208510156114005750805b601f840160051c820191505b81811015611420576000815560010161140c565b50505b505050565b815167ffffffffffffffff81111561144257611442611389565b61145681611450845461139f565b846113d9565b6020601f82116001811461148a57600083156114725750848201515b600019600385901b1c1916600184901b178455611420565b600084815260208120601f198516915b828110156114ba578785015182556020948501946001909201910161149a565b50848210156114d85786840151600019600387901b60f8161c191681555b50505050600190811b01905550565b80356001600160a01b03811681146114fe57600080fd5b919050565b60006020828403121561151557600080fd5b61151e826114e7565b9392505050565b6000806040838503121561153857600080fd5b611541836114e7565b946020939093013593505050565b602081526000825180602084015260005b8181101561157d5760208186018101516040868401015201611560565b506000604082850101526040601f19601f83011684010191505092915050565b6000602082840312156115af57600080fd5b5035919050565b60008083601f8401126115c857600080fd5b50813567ffffffffffffffff8111156115e057600080fd5b6020830191508360208260051b85010111156115fb57600080fd5b9250929050565b60008060008060006060868803121561161a57600080fd5b853567ffffffffffffffff81111561163157600080fd5b8601601f8101881361164257600080fd5b803567ffffffffffffffff81111561165957600080fd5b88602082840101111561166b57600080fd5b60209182019650945086013567ffffffffffffffff81111561168c57600080fd5b611698888289016115b6565b96999598509660400135949350505050565b6000602082840312156116bc57600080fd5b813567ffffffffffffffff8111156116d357600080fd5b8201601f810184136116e457600080fd5b803567ffffffffffffffff8111156116fe576116fe611389565b604051601f8201601f19908116603f0116810167ffffffffffffffff8111828210171561172d5761172d611389565b60405281815282820160200186101561174557600080fd5b81602084016020830137600091810160200191909152949350505050565b6000806040838503121561177657600080fd5b50508035926020909101359150565b8181038181111561127057611270611360565b6000600182016117aa576117aa611360565b506001019056fea2646970667358221220c1957d42d5fdc3018811f8b3670c05797a489d37e4f036b11498fe4aa5acf46e64736f6c634300081c0033",
        "linkReferences": {}
    },
    "methodIdentifiers": {
        "OTAs(address)": "6f8a8921",
        "addToSixtyOne(string)": "4f1fd30e",
        "bookBooking(uint256)": "b9ea94b3",
        "bookedRooms(address,uint256)": "ad11c23f",
        "bookerOfRooms(uint256)": "ee626d6a",
        "bookers(address)": "f15ea472",
        "cancelBooking(uint256)": "0dca825e",
        "checkpoint(string)": "6697a925",
        "checkpointCounts(address)": "c0a32996",
        "checkpoints(address,uint256)": "0cdfebfa",
        "escrowBookingPayment(bytes,bytes32[],uint256)": "34779ec3",
        "isBooked(address,uint256)": "e2cc1036",
        "isBooker(address)": "062db1e3",
        "listAvailableRooms(uint256,uint256)": "fe67f902",
        "listedRoomes(uint256)": "d75e26a4",
        "lockedAmounts(address)": "a8c7a08a",
        "nullifiers(bytes32)": "2997e86b",
        "propertyOwners(address)": "771c6f07",
        "reclaimProtocolVerifier()": "17d1bd2b",
        "registerAsBooker()": "484e085f",
        "registerAsOTA()": "63036d54",
        "registerAsPropertyOwner()": "bd5a6d2a",
        "roomPrices(uint256)": "c91489a7",
        "testFunctionForCheckPoint()": "8099b3f5",
        "unregisterAsBooker()": "956d0961",
        "unregisterAsOTA()": "3e1d3845",
        "unregisterAsPropertyOwner()": "c158bf3b",
        "version()": "54fd4d50"
    },
    "id": 1
}