{"abi":[{"type":"constructor","inputs":[{"name":"_travelHistoryProofVerifier","type":"address","internalType":"contract TravelHistoryProofVerifier"}],"stateMutability":"nonpayable"},{"type":"function","name":"checkpoint","inputs":[{"name":"methodName","type":"string","internalType":"string"}],"outputs":[{"name":"","type":"bool","internalType":"bool"}],"stateMutability":"nonpayable"},{"type":"function","name":"checkpoints","inputs":[{"name":"","type":"address","internalType":"address"},{"name":"","type":"uint256","internalType":"uint256"}],"outputs":[{"name":"","type":"string","internalType":"string"}],"stateMutability":"view"},{"type":"function","name":"deregisterAsTraveler","inputs":[],"outputs":[{"name":"","type":"bool","internalType":"bool"}],"stateMutability":"nonpayable"},{"type":"function","name":"getPublicInputsOfTravelHistoryProof","inputs":[{"name":"traveler","type":"address","internalType":"address"},{"name":"proof","type":"bytes","internalType":"bytes"}],"outputs":[{"name":"_publicInput","type":"tuple","internalType":"struct DataType.PublicInput","components":[{"name":"root","type":"bytes32","internalType":"bytes32"},{"name":"country_code","type":"bytes32","internalType":"bytes32"},{"name":"enter_date","type":"bytes32","internalType":"bytes32"},{"name":"exit_date","type":"bytes32","internalType":"bytes32"},{"name":"nullifierHash","type":"bytes32","internalType":"bytes32"}]}],"stateMutability":"view"},{"type":"function","name":"isTravelHistoryProofRecorded","inputs":[{"name":"traveler","type":"address","internalType":"address"},{"name":"proof","type":"bytes","internalType":"bytes"}],"outputs":[{"name":"","type":"bool","internalType":"bool"}],"stateMutability":"view"},{"type":"function","name":"isTravelerBreachingDaysLimitOfStaying","inputs":[{"name":"traveler","type":"address","internalType":"address"},{"name":"proof","type":"bytes","internalType":"bytes"}],"outputs":[{"name":"","type":"bool","internalType":"bool"}],"stateMutability":"view"},{"type":"function","name":"nullifiers","inputs":[{"name":"nullifierHash","type":"bytes32","internalType":"bytes32"}],"outputs":[{"name":"isNullified","type":"bool","internalType":"bool"}],"stateMutability":"view"},{"type":"function","name":"nullifiersByWalletAddresses","inputs":[{"name":"","type":"address","internalType":"address"}],"outputs":[{"name":"nullifierHash","type":"bytes32","internalType":"bytes32"}],"stateMutability":"view"},{"type":"function","name":"publicInputsOfTravelHistoryProofs","inputs":[{"name":"","type":"address","internalType":"address"},{"name":"","type":"bytes","internalType":"bytes"}],"outputs":[{"name":"root","type":"bytes32","internalType":"bytes32"},{"name":"country_code","type":"bytes32","internalType":"bytes32"},{"name":"enter_date","type":"bytes32","internalType":"bytes32"},{"name":"exit_date","type":"bytes32","internalType":"bytes32"},{"name":"nullifierHash","type":"bytes32","internalType":"bytes32"}],"stateMutability":"view"},{"type":"function","name":"recordTravelHistoryProof","inputs":[{"name":"proof","type":"bytes","internalType":"bytes"},{"name":"publicInputs","type":"bytes32[]","internalType":"bytes32[]"}],"outputs":[{"name":"","type":"bool","internalType":"bool"}],"stateMutability":"nonpayable"},{"type":"function","name":"registerAsTraveler","inputs":[],"outputs":[{"name":"","type":"bool","internalType":"bool"}],"stateMutability":"nonpayable"},{"type":"function","name":"testFunctionForCheckPoint","inputs":[],"outputs":[{"name":"","type":"bool","internalType":"bool"}],"stateMutability":"nonpayable"},{"type":"function","name":"travelHistoryProofRecords","inputs":[{"name":"","type":"address","internalType":"address"},{"name":"","type":"bytes","internalType":"bytes"}],"outputs":[{"name":"","type":"bool","internalType":"bool"}],"stateMutability":"view"},{"type":"function","name":"travelHistoryProofVerifier","inputs":[],"outputs":[{"name":"","type":"address","internalType":"contract TravelHistoryProofVerifier"}],"stateMutability":"view"},{"type":"function","name":"travelers","inputs":[{"name":"","type":"address","internalType":"address"}],"outputs":[{"name":"","type":"bool","internalType":"bool"}],"stateMutability":"view"},{"type":"function","name":"version","inputs":[],"outputs":[{"name":"","type":"string","internalType":"string"}],"stateMutability":"view"}],"bytecode":{"object":"0x608060405234801561001057600080fd5b506040516113e43803806113e483398101604081905261002f9161007b565b600080546001600160a01b0319166001600160a01b038316179055604080518082019091526006815265302e322e333760d01b6020820152600790610074908261014a565b5050610208565b60006020828403121561008d57600080fd5b81516001600160a01b03811681146100a457600080fd5b9392505050565b634e487b7160e01b600052604160045260246000fd5b600181811c908216806100d557607f821691505b6020821081036100f557634e487b7160e01b600052602260045260246000fd5b50919050565b601f82111561014557806000526020600020601f840160051c810160208510156101225750805b601f840160051c820191505b81811015610142576000815560010161012e565b50505b505050565b81516001600160401b03811115610163576101636100ab565b6101778161017184546100c1565b846100fb565b6020601f8211600181146101ab57600083156101935750848201515b600019600385901b1c1916600184901b178455610142565b600084815260208120601f198516915b828110156101db57878501518255602094850194600190920191016101bb565b50848210156101f95786840151600019600387901b60f8161c191681555b50505050600190811b01905550565b6111cd806102176000396000f3fe608060405234801561001057600080fd5b50600436106101005760003560e01c80636697a92511610097578063dc12fe3f11610066578063dc12fe3f1461027c578063f551e18a146102fb578063f7471d1614610326578063ff1f522c1461033957600080fd5b80636697a925146102205780638099b3f51461023357806393425c4e1461023b5780639a91f38f1461024e57600080fd5b80632997e86b116100d35780632997e86b146101ae57806331a71c58146101d157806333cd7e621461021057806354fd4d501461021857600080fd5b80630cdfebfa146101055780630cf221d31461012e5780631e9b02231461015157806320793dde146101a6575b600080fd5b610118610113366004610c02565b61035c565b6040516101259190610c2c565b60405180910390f35b61014161013c366004610cc3565b610401565b6040519015158152602001610125565b61016461015f366004610cc3565b610484565b6040516101259190600060a082019050825182526020830151602083015260408301516040830152606083015160608301526080830151608083015292915050565b610141610528565b6101416101bc366004610d16565b60036020526000908152604090205460ff1681565b6101416101df366004610dbf565b6002602090815260009283526040909220815180830184018051928152908401929093019190912091525460ff1681565b61014161060e565b6101186106aa565b61014161022e366004610e21565b6106b7565b61014161072b565b610141610249366004610e72565b61078b565b61026e61025c366004610f16565b60046020526000908152604090205481565b604051908152602001610125565b6102d361028a366004610dbf565b6001602081815260009384526040909320825180840185018051928152908501939094019290922091909252805491810154600282015460038301546004909301549192909185565b604080519586526020860194909452928401919091526060830152608082015260a001610125565b60005461030e906001600160a01b031681565b6040516001600160a01b039091168152602001610125565b610141610334366004610cc3565b610ba2565b610141610347366004610f16565b60056020526000908152604090205460ff1681565b60066020908152600092835260408084209091529082529020805461038090610f38565b80601f01602080910402602001604051908101604052809291908181526020018280546103ac90610f38565b80156103f95780601f106103ce576101008083540402835291602001916103f9565b820191906000526020600020905b8154815290600101906020018083116103dc57829003601f168201915b505050505081565b6040805160a0810182526000808252602082018190529181018290526060810182905260808101829052610436858585610484565b8051602082015160408301516060840151608085015194955092939192909160006276a7006104658585610f72565b1161047257506001610476565b5060005b9a9950505050505050505050565b6040805160a0810182526000808252602080830182905282840182905260608301829052608083018290526001600160a01b03871682526001905282902091519091906104d49085908590610f99565b90815260200160405180910390206040518060a00160405290816000820154815260200160018201548152602001600282015481526020016003820154815260200160048201548152505090509392505050565b60408051808201825260128152713932b3b4b9ba32b920b9aa3930bb32b632b960711b60208083019190915233600090815260068252838120428252909152918220906105759082610ff8565b503360009081526005602052604090205460ff16156105ed5760405162461bcd60e51b815260206004820152602960248201527f596f75206861766520616c726561647920726567697374657265642061732061604482015268103a3930bb32b632b960b91b60648201526084015b60405180910390fd5b50336000908152600560205260409020805460ff1916600190811790915590565b60408051808201825260148152733232b932b3b4b9ba32b920b9aa3930bb32b632b960611b602080830191909152336000908152600682528381204282529091529182209061065d9082610ff8565b503360009081526005602052604090205460ff1661068d5760405162461bcd60e51b81526004016105e4906110b7565b50336000908152600560205260409020805460ff19169055600190565b6007805461038090610f38565b33600090815260066020908152604080832042845290915281206106db8382610ff8565b50604080518082018252600a81526918da1958dadc1bda5b9d60b21b6020808301919091523360009081526006825283812042825290915291909120906107229082610ff8565b50600192915050565b604080518082018252601981527f7465737446756e6374696f6e466f72436865636b506f696e740000000000000060208083019190915233600090815260068252838120428252909152918220906107839082610ff8565b506001905090565b3360009081526005602052604081205460ff166107ba5760405162461bcd60e51b81526004016105e4906110b7565b600080546040516346fe9be760e11b81526001600160a01b0390911690638dfd37ce906107f19089908990899089906004016110fb565b602060405180830381865afa15801561080e573d6000803e3d6000fd5b505050506040513d601f19601f82011682018060405250810190610832919061115f565b90508061088b5760405162461bcd60e51b815260206004820152602160248201527f54726176656c20486973746f72792050726f6f66206973206e6f742076616c696044820152601960fa1b60648201526084016105e4565b336000908152600260205260409081902090516108ab9088908890610f99565b9081526040519081900360200190205460ff16156109575760405162461bcd60e51b815260206004820152605b60248201527f4120676976656e2070726f6f6620697320616c7265616479207265636f72646560448201527f64206f6e2d636861696e2c207768696368206d65616e7320746869732067697660648201527f656e2070726f6f6620697320646f75626c652d7370656e64696e670000000000608482015260a4016105e4565b336000908152600260205260409081902090516001919061097b9089908990610f99565b908152604051908190036020019020805491151560ff19909216919091179055600583146109eb5760405162461bcd60e51b815260206004820152601f60248201527f496e76616c6964206e756d626572206f66207075626c696320696e707574730060448201526064016105e4565b6040805160a08101825260008082526020820181905291810182905260608101829052608081019190915284846000818110610a2957610a29611181565b602002919091013582525084846001818110610a4757610a47611181565b9050602002013581602001818152505084846002818110610a6a57610a6a611181565b602002919091013560408301525084846003818110610a8b57610a8b611181565b602002919091013560608301525084846004818110610aac57610aac611181565b6020908102929092013560808401525033600090815260019091526040908190209051829190610adf908a908a90610f99565b9081526040805191829003602090810183208451815584820151600180830191909155858401516002830155606086015160038084019190915560809687015160049384015595870180516000908152968452848720805460ff19169092179091555133808752918352838620558383018352601884527f7265636f726454726176656c486973746f727950726f6f66000000000000000084830152845260068152818420428552905290912090610b979082610ff8565b505050949350505050565b6001600160a01b0383166000908152600260205260408082209051610bca9085908590610f99565b9081526040519081900360200190205460ff1690509392505050565b80356001600160a01b0381168114610bfd57600080fd5b919050565b60008060408385031215610c1557600080fd5b610c1e83610be6565b946020939093013593505050565b602081526000825180602084015260005b81811015610c5a5760208186018101516040868401015201610c3d565b506000604082850101526040601f19601f83011684010191505092915050565b60008083601f840112610c8c57600080fd5b50813567ffffffffffffffff811115610ca457600080fd5b602083019150836020828501011115610cbc57600080fd5b9250929050565b600080600060408486031215610cd857600080fd5b610ce184610be6565b9250602084013567ffffffffffffffff811115610cfd57600080fd5b610d0986828701610c7a565b9497909650939450505050565b600060208284031215610d2857600080fd5b5035919050565b634e487b7160e01b600052604160045260246000fd5b60008067ffffffffffffffff841115610d6057610d60610d2f565b50604051601f19601f85018116603f0116810181811067ffffffffffffffff82111715610d8f57610d8f610d2f565b604052838152905080828401851015610da757600080fd5b83836020830137600060208583010152509392505050565b60008060408385031215610dd257600080fd5b610ddb83610be6565b9150602083013567ffffffffffffffff811115610df757600080fd5b8301601f81018513610e0857600080fd5b610e1785823560208401610d45565b9150509250929050565b600060208284031215610e3357600080fd5b813567ffffffffffffffff811115610e4a57600080fd5b8201601f81018413610e5b57600080fd5b610e6a84823560208401610d45565b949350505050565b60008060008060408587031215610e8857600080fd5b843567ffffffffffffffff811115610e9f57600080fd5b610eab87828801610c7a565b909550935050602085013567ffffffffffffffff811115610ecb57600080fd5b8501601f81018713610edc57600080fd5b803567ffffffffffffffff811115610ef357600080fd5b8760208260051b8401011115610f0857600080fd5b949793965060200194505050565b600060208284031215610f2857600080fd5b610f3182610be6565b9392505050565b600181811c90821680610f4c57607f821691505b602082108103610f6c57634e487b7160e01b600052602260045260246000fd5b50919050565b81810381811115610f9357634e487b7160e01b600052601160045260246000fd5b92915050565b8183823760009101908152919050565b601f821115610ff357806000526020600020601f840160051c81016020851015610fd05750805b601f840160051c820191505b81811015610ff05760008155600101610fdc565b50505b505050565b815167ffffffffffffffff81111561101257611012610d2f565b611026816110208454610f38565b84610fa9565b6020601f82116001811461105a57600083156110425750848201515b600019600385901b1c1916600184901b178455610ff0565b600084815260208120601f198516915b8281101561108a578785015182556020948501946001909201910161106a565b50848210156110a85786840151600019600387901b60f8161c191681555b50505050600190811b01905550565b60208082526024908201527f596f7520617265206e6f7420726567697374657265642061732061207472617660408201526332b632b960e11b606082015260800190565b6040815283604082015283856060830137600060608583018101829052601f19601f8701168301838103820160208501529081018490526001600160fb1b0384111561114657600080fd5b8360051b80866080840137016080019695505050505050565b60006020828403121561117157600080fd5b81518015158114610f3157600080fd5b634e487b7160e01b600052603260045260246000fdfea2646970667358221220873ec8afb46c3e7eff4a48432a693beccf66903d2c4f4795031272479e32c8b464736f6c634300081c0033","linkReferences":{}},"methodIdentifiers":{"checkpoint(string)":"6697a925","checkpoints(address,uint256)":"0cdfebfa","deregisterAsTraveler()":"33cd7e62","getPublicInputsOfTravelHistoryProof(address,bytes)":"1e9b0223","isTravelHistoryProofRecorded(address,bytes)":"f7471d16","isTravelerBreachingDaysLimitOfStaying(address,bytes)":"0cf221d3","nullifiers(bytes32)":"2997e86b","nullifiersByWalletAddresses(address)":"9a91f38f","publicInputsOfTravelHistoryProofs(address,bytes)":"dc12fe3f","recordTravelHistoryProof(bytes,bytes32[])":"93425c4e","registerAsTraveler()":"20793dde","testFunctionForCheckPoint()":"8099b3f5","travelHistoryProofRecords(address,bytes)":"31a71c58","travelHistoryProofVerifier()":"f551e18a","travelers(address)":"ff1f522c","version()":"54fd4d50"},"id":2}