{"abi":[{"type":"constructor","inputs":[],"stateMutability":"nonpayable"},{"type":"fallback","stateMutability":"payable"},{"type":"receive","stateMutability":"payable"},{"type":"function","name":"checkpoint","inputs":[{"name":"methodName","type":"string","internalType":"string"}],"outputs":[{"name":"","type":"bool","internalType":"bool"}],"stateMutability":"nonpayable"},{"type":"function","name":"checkpointCounts","inputs":[{"name":"caller","type":"address","internalType":"address"}],"outputs":[{"name":"count","type":"uint256","internalType":"uint256"}],"stateMutability":"view"},{"type":"function","name":"checkpoints","inputs":[{"name":"","type":"address","internalType":"address"},{"name":"","type":"uint256","internalType":"uint256"}],"outputs":[{"name":"","type":"string","internalType":"string"}],"stateMutability":"view"},{"type":"function","name":"deregisterAsStaker","inputs":[],"outputs":[{"name":"","type":"bool","internalType":"bool"}],"stateMutability":"nonpayable"},{"type":"function","name":"getContractBalance","inputs":[],"outputs":[{"name":"","type":"uint256","internalType":"uint256"}],"stateMutability":"view"},{"type":"function","name":"getRewards","inputs":[],"outputs":[{"name":"","type":"bool","internalType":"bool"}],"stateMutability":"view"},{"type":"function","name":"registerAsStaker","inputs":[],"outputs":[{"name":"","type":"bool","internalType":"bool"}],"stateMutability":"nonpayable"},{"type":"function","name":"stakeERC20TokenIntoStakingPool","inputs":[],"outputs":[{"name":"","type":"bool","internalType":"bool"}],"stateMutability":"nonpayable"},{"type":"function","name":"stakeNativeTokenIntoStakingPool","inputs":[],"outputs":[{"name":"","type":"bool","internalType":"bool"}],"stateMutability":"payable"},{"type":"function","name":"stakeUSDCIntoStakingPool","inputs":[{"name":"amount","type":"uint256","internalType":"uint256"}],"outputs":[{"name":"","type":"bool","internalType":"bool"}],"stateMutability":"nonpayable"},{"type":"function","name":"stakedAmounts","inputs":[{"name":"","type":"address","internalType":"address"}],"outputs":[{"name":"","type":"uint256","internalType":"uint256"}],"stateMutability":"view"},{"type":"function","name":"stakers","inputs":[{"name":"","type":"address","internalType":"address"}],"outputs":[{"name":"","type":"bool","internalType":"bool"}],"stateMutability":"view"},{"type":"function","name":"testFunctionForCheckPoint","inputs":[],"outputs":[{"name":"","type":"bool","internalType":"bool"}],"stateMutability":"nonpayable"},{"type":"function","name":"unstakeERC20TokenFromStakingPool","inputs":[],"outputs":[{"name":"","type":"bool","internalType":"bool"}],"stateMutability":"nonpayable"},{"type":"function","name":"unstakeNativeTokenFromStakingPool","inputs":[],"outputs":[{"name":"","type":"bool","internalType":"bool"}],"stateMutability":"nonpayable"},{"type":"function","name":"unstakeUSDCFromStakingPool","inputs":[],"outputs":[{"name":"","type":"bool","internalType":"bool"}],"stateMutability":"nonpayable"},{"type":"function","name":"usdc","inputs":[],"outputs":[{"name":"","type":"address","internalType":"contract IERC20"}],"stateMutability":"view"},{"type":"function","name":"version","inputs":[],"outputs":[{"name":"","type":"string","internalType":"string"}],"stateMutability":"view"}],"bytecode":{"object":"0x608060405234801561001057600080fd5b50600080546001600160a01b03191673833589fcd6edb6e08f4c7c32d4f71b54bda02913179055604080518082019091526006815265302e322e333760d01b60208201526005906100619082610106565b506101c4565b634e487b7160e01b600052604160045260246000fd5b600181811c9082168061009157607f821691505b6020821081036100b157634e487b7160e01b600052602260045260246000fd5b50919050565b601f82111561010157806000526020600020601f840160051c810160208510156100de5750805b601f840160051c820191505b818110156100fe57600081556001016100ea565b50505b505050565b81516001600160401b0381111561011f5761011f610067565b6101338161012d845461007d565b846100b7565b6020601f821160018114610167576000831561014f5750848201515b600019600385901b1c1916600184901b1784556100fe565b600084815260208120601f198516915b828110156101975787850151825560209485019460019092019101610177565b50848210156101b55786840151600019600387901b60f8161c191681555b50505050600190811b01905550565b611242806101d36000396000f3fe60806040526004361061010d5760003560e01c80638099b3f511610095578063c0a3299611610064578063c0a329961461044c578063c816373c14610479578063cdad683614610348578063f7f599d71461048e578063fb9316fa14610496576101e7565b80638099b3f5146103dd5780639168ae72146103f25780639a23bfa514610422578063a6be5f7a14610437576101e7565b80631c49f136116100dc5780631c49f136146103485780633e413bee1461035d57806354fd4d50146103955780636697a925146103aa5780636f9fb98a146103ca576101e7565b80630572b0cc146102965780630cdfebfa146102c05780630ce5e580146102ed57806310c1c1031461030d576101e7565b366101e7576000341161015e5760405162461bcd60e51b815260206004820152601460248201527326bab9ba1039b2b7321039b7b6b29022ba3432b960611b60448201526064015b60405180910390fd5b336000908152600460205260408120805434929061017d908490610ea3565b909155505060408051808201825260078152667265636569766560c81b6020808301919091523360009081526001825283812042825290915291909120906101c59082610f5b565b503360009081526002602052604081208054916101e18361101a565b91905055005b6000341161022e5760405162461bcd60e51b815260206004820152601460248201527326bab9ba1039b2b7321039b7b6b29022ba3432b960611b6044820152606401610155565b336000908152600460205260408120805434929061024d908490610ea3565b9091555050604080518082018252600881526766616c6c6261636b60c01b6020808301919091523360009081526001825283812042825290915291909120906101c59082610f5b565b3480156102a257600080fd5b506102ab6104ab565b60405190151581526020015b60405180910390f35b3480156102cc57600080fd5b506102e06102db36600461104f565b610519565b6040516102b79190611079565b3480156102f957600080fd5b506102ab6103083660046110c7565b6105be565b34801561031957600080fd5b5061033a6103283660046110e0565b60046020526000908152604090205481565b6040519081526020016102b7565b34801561035457600080fd5b506102ab61070c565b34801561036957600080fd5b5060005461037d906001600160a01b031681565b6040516001600160a01b0390911681526020016102b7565b3480156103a157600080fd5b506102e061084e565b3480156103b657600080fd5b506102ab6103c5366004611102565b61085b565b3480156103d657600080fd5b504761033a565b3480156103e957600080fd5b506102ab6108c6565b3480156103fe57600080fd5b506102ab61040d3660046110e0565b60036020526000908152604090205460ff1681565b34801561042e57600080fd5b506102ab61091e565b34801561044357600080fd5b506102ab6109e4565b34801561045857600080fd5b5061033a6104673660046110e0565b60026020526000908152604090205481565b34801561048557600080fd5b506102ab610a3c565b6102ab610c04565b3480156104a257600080fd5b506102ab610dbf565b3360009081526002602052604081205481906104c89060016111bb565b9050600081116105115760405162461bcd60e51b81526020600482015260146024820152734e6f207265776172647320617661696c61626c6560601b6044820152606401610155565b600191505090565b60016020908152600092835260408084209091529082529020805461053d90610ed2565b80601f016020809104026020016040519081016040528092919081815260200182805461056990610ed2565b80156105b65780601f1061058b576101008083540402835291602001916105b6565b820191906000526020600020905b81548152906001019060200180831161059957829003601f168201915b505050505081565b600080546040516370a0823160e01b815233600482015283916001600160a01b0316906370a0823190602401602060405180830381865afa158015610607573d6000803e3d6000fd5b505050506040513d601f19601f8201168201806040525081019061062b91906111d2565b1161068a5760405162461bcd60e51b815260206004820152602960248201527f496e73756666696369656e7420455243323020746f6b656e2062616c616e636560448201526820746f207374616b6560b81b6064820152608401610155565b604080518082018252601881527f7374616b6555534443496e746f5374616b696e67506f6f6c00000000000000006020808301919091523360009081526001825283812042825290915291909120906106e39082610f5b565b503360009081526002602052604081208054916106ff8361101a565b9091555060019392505050565b600080546040516370a0823160e01b815230600482015282916001600160a01b0316906370a0823190602401602060405180830381865afa158015610755573d6000803e3d6000fd5b505050506040513d601f19601f8201168201806040525081019061077991906111d2565b116107d15760405162461bcd60e51b815260206004820152602260248201527f4e6f207374616b656420455243323020746f6b656e7320746f20776974686472604482015261617760f01b6064820152608401610155565b60408051808201825260208082527f756e7374616b654552433230546f6b656e46726f6d5374616b696e67506f6f6c818301523360009081526001825283812042825290915291909120906108269082610f5b565b503360009081526002602052604081208054916108428361101a565b91905055506001905090565b6005805461053d90610ed2565b336000908152600160209081526040808320428452909152812061087f8382610f5b565b50604080518082018252600a81526918da1958dadc1bda5b9d60b21b6020808301919091523360009081526001825283812042825290915291909120906106e39082610f5b565b604080518082018252601981527f7465737446756e6374696f6e466f72436865636b506f696e740000000000000060208083019190915233600090815260018252838120428252909152918220906108269082610f5b565b3360009081526003602052604081205460ff166109885760405162461bcd60e51b815260206004820152602260248201527f596f7520617265206e6f7420726567697374657265642061732061207374616b60448201526132b960f11b6064820152608401610155565b336000818152600360209081526040808320805460ff191690558051808201825260128152713232b932b3b4b9ba32b920b9a9ba30b5b2b960711b81840152938352600182528083204284529091529020906108269082610f5b565b604080518082018252601e81527f7374616b654552433230546f6b656e496e746f5374616b696e67506f6f6c000060208083019190915233600090815260018252838120428252909152918220906108269082610f5b565b3360009081526003602052604081205460ff16610a925760405162461bcd60e51b81526020600482015260146024820152732cb7ba9030b932903737ba10309039ba30b5b2b960611b6044820152606401610155565b33600090815260046020526040902054610afc5760405162461bcd60e51b815260206004820152602560248201527f596f752068617665206e6f207374616b656420616d6f756e7420746f20776974604482015264686472617760d81b6064820152608401610155565b33600081815260046020526040808220805490839055905190929190829084908381818185875af1925050503d8060008114610b54576040519150601f19603f3d011682016040523d82523d6000602084013e610b59565b606091505b5050905080610b9b5760405162461bcd60e51b815260206004820152600e60248201526d155b9cdd185ad94819985a5b195960921b6044820152606401610155565b6040518060600160405280602181526020016111ec60219139336000908152600160209081526040808320428452909152902090610bd99082610f5b565b50336000908152600260205260408120805491610bf58361101a565b91905055506001935050505090565b6000803411610c555760405162461bcd60e51b815260206004820152601d60248201527f416d6f756e74206d7573742062652067726561746572207468616e20300000006044820152606401610155565b3433311015610ca65760405162461bcd60e51b815260206004820152601d60248201527f496e73756666696369656e742062616c616e636520746f207374616b650000006044820152606401610155565b33600090815260046020526040808220349081905590513091908381818185875af1925050503d8060008114610cf8576040519150601f19603f3d011682016040523d82523d6000602084013e610cfd565b606091505b5050905080610d3d5760405162461bcd60e51b815260206004820152600c60248201526b14dd185ad94819985a5b195960a21b6044820152606401610155565b604080518082018252601f81527f7374616b654e6174697665546f6b656e496e746f5374616b696e67506f6f6c00602080830191909152336000908152600182528381204282529091529190912090610d969082610f5b565b50336000908152600260205260408120805491610db28361101a565b9190505550600191505090565b3360009081526003602052604081205460ff1615610e2f5760405162461bcd60e51b815260206004820152602760248201527f596f75206861766520616c7265616479207265676973746572656420617320616044820152661039ba30b5b2b960c91b6064820152608401610155565b336000818152600360209081526040808320805460ff1916600190811790915581518083018352601081526f3932b3b4b9ba32b920b9a9ba30b5b2b960811b8185015294845282528083204284529091529020906108269082610f5b565b634e487b7160e01b600052601160045260246000fd5b80820180821115610eb657610eb6610e8d565b92915050565b634e487b7160e01b600052604160045260246000fd5b600181811c90821680610ee657607f821691505b602082108103610f0657634e487b7160e01b600052602260045260246000fd5b50919050565b601f821115610f5657806000526020600020601f840160051c81016020851015610f335750805b601f840160051c820191505b81811015610f535760008155600101610f3f565b50505b505050565b815167ffffffffffffffff811115610f7557610f75610ebc565b610f8981610f838454610ed2565b84610f0c565b6020601f821160018114610fbd5760008315610fa55750848201515b600019600385901b1c1916600184901b178455610f53565b600084815260208120601f198516915b82811015610fed5787850151825560209485019460019092019101610fcd565b508482101561100b5786840151600019600387901b60f8161c191681555b50505050600190811b01905550565b60006001820161102c5761102c610e8d565b5060010190565b80356001600160a01b038116811461104a57600080fd5b919050565b6000806040838503121561106257600080fd5b61106b83611033565b946020939093013593505050565b602081526000825180602084015260005b818110156110a7576020818601810151604086840101520161108a565b506000604082850101526040601f19601f83011684010191505092915050565b6000602082840312156110d957600080fd5b5035919050565b6000602082840312156110f257600080fd5b6110fb82611033565b9392505050565b60006020828403121561111457600080fd5b813567ffffffffffffffff81111561112b57600080fd5b8201601f8101841361113c57600080fd5b803567ffffffffffffffff81111561115657611156610ebc565b604051601f8201601f19908116603f0116810167ffffffffffffffff8111828210171561118557611185610ebc565b60405281815282820160200186101561119d57600080fd5b81602084016020830137600091810160200191909152949350505050565b8082028115828204841417610eb657610eb6610e8d565b6000602082840312156111e457600080fd5b505191905056fe756e7374616b654e6174697665546f6b656e46726f6d5374616b696e67506f6f6ca2646970667358221220457c2ac813b1e17a9fce38c23511f93be248bca05a45ced002205cf8f7ffcb1764736f6c634300081c0033","linkReferences":{}},"methodIdentifiers":{"checkpoint(string)":"6697a925","checkpointCounts(address)":"c0a32996","checkpoints(address,uint256)":"0cdfebfa","deregisterAsStaker()":"9a23bfa5","getContractBalance()":"6f9fb98a","getRewards()":"0572b0cc","registerAsStaker()":"fb9316fa","stakeERC20TokenIntoStakingPool()":"a6be5f7a","stakeNativeTokenIntoStakingPool()":"f7f599d7","stakeUSDCIntoStakingPool(uint256)":"0ce5e580","stakedAmounts(address)":"10c1c103","stakers(address)":"9168ae72","testFunctionForCheckPoint()":"8099b3f5","unstakeERC20TokenFromStakingPool()":"cdad6836","unstakeNativeTokenFromStakingPool()":"c816373c","unstakeUSDCFromStakingPool()":"1c49f136","usdc()":"3e413bee","version()":"54fd4d50"},"id":0}